:080B8300120B03120A7D80FB36
:100AE300EF1FAA0670011E4A6015E4FCFDC3ED94D6
:0F0AF30082EC6480948050E80DBD00010C80EE11
:010B020022D0
:100ABF00EF64014E700CED64014C7004C290800223
:100ACF00D290EF64024E700BED64014C7003C29133
:040ADF0022D291226C
:080B2F0002080000020A0001A7
:100B1C00EF4E7006E50845098004E50A450B24FFF5
:030B2C009287228B
:090B3B00D280C281D282C2832261
:090B4400C280D281C282D2832258
:090B4D00C280C281D282C283225F
:090B5600D280C281C282C2832256
:090B5F00C280D281D282C283223D
:090B6800D280C281C282D2832234
:090B7100C280C281C282C283224B
:10080000A284E433F50CA286E433F50DA285E4332B
:10081000F50EE50D70047F0180027F00E50C700489
:100820007E0180027E00EE5FFFE50E70047E018097
:10083000027E00EE5F60028052E50D70047F018051
:10084000027F00E50C640170047E0180027E00EEF0
:100850005FFFE50E640170047E0180027E00EE5FA2
:1008600060028027E50D640170047F0180027F0033
:10087000E50C70047E0180027E00EE5FFFE50E70E5
:10088000047E0180027E00EE5F6006120B3B0208D0
:1008900000E50D640170047F0180027F00E50C64B7
:1008A0000170047E0180027E00EE5FFFE50E6401B0
:1008B00070047E0180027E00EE5F6006120B710202
:1008C0000800E50D70047F0180027F00E50C6401E3
:1008D00070047E0180027E00EE5FFFE50E70047EF4
:1008E0000180027E00EE5F600F120B717F1E7E00A2
:1008F000120AE3120B4D8063E50D640170047F0161
:1009000080027F00E50C640170047E0180027E009D
:10091000EE5FFFE50E70047E0180027E00EE5F60F8
:1009200006120B5F020800E50D70047F0180027F54
:1009300000E50C70047E0180027E00EE5FFFE50E94
:10094000640170047E0180027E00EE5F6017120B6E
:10095000717F1E7E00120AE3120B567F8C7E0012FE
:100960000AE3020800E50D640170047F0180027F44
:1009700000E50C70047E0180027E00EE5FFFE50E54
:10098000640170047E0180027E00EE5F7003020845
:0709900000120B68020800D1
:100A2300A290E433F50FA291E433F510A292E433DC
:100A3300FFFD7C00640170047E0180027E00ED6492
:100A4300014C70047D0180027D00ED5EFEEF6401C8
:100A530070047F0180027F00EF5E6005120B3B8014
:100A6300BF120B447F907E01120AE3120B71120B2B
:0A0A73005F7FF47E01120AE380A603
:030B3700011100A9
:100B030075985053877F53890F438920758DFD75E1
:090B13008BFDD28ED2AFD2AC22D0
:03002300020B7A53
:090B7A00309805859911C29832EA
:100A7D00E51164017005120B3B80F5E51164027000
:100A8D0005120B4D80EAE51164037005120B5680BB
:100A9D00DFE51164047005120B7180D4E511640556
:100AAD007005120B4480C9E511649970C3120800DA
:020ABD0080BEF9
:030000000209975B
:0C099700787FE4F6D8FD7581110209DEBE
:1009A300020B83E493A3F8E493A34003F68001F2DC
:1009B30008DFF48029E493A3F85407240CC8C33355
:1009C300C4540F4420C8834004F456800146F6DF24
:1009D300E4800B0102040810204080900B2FE47E7A
:1009E300019360BCA3FF543F30E509541FFEE49319
:1009F300A360010ECF54C025E060A840B8E493A3E0
:100A0300FAE493A3F8E493A3C8C582C8CAC583CA0A
:100A1300F0A3C8C582C8CAC583CADFE9DEE780BEC2
:010B3A0000BA
:00000001FF
